{
  "_format": "hh-sol-artifact-1",
  "contractName": "LicenseFactory",
  "sourceName": "contracts/licenseFactory.sol",
  "abi": [
    {
      "inputs": [],
      "stateMutability": "nonpayable",
      "type": "constructor"
    },
    {
      "anonymous": false,
      "inputs": [
        {
          "indexed": false,
          "internalType": "string",
          "name": "name",
          "type": "string"
        },
        {
          "indexed": false,
          "internalType": "uint256",
          "name": "ID_NUMBER",
          "type": "uint256"
        }
      ],
      "name": "NewLicense",
      "type": "event"
    },
    {
      "anonymous": false,
      "inputs": [
        {
          "indexed": false,
          "internalType": "string",
          "name": "name",
          "type": "string"
        },
        {
          "indexed": false,
          "internalType": "uint256",
          "name": "ID_NUMBER",
          "type": "uint256"
        }
      ],
      "name": "UpdatedLicense",
      "type": "event"
    },
    {
      "inputs": [
        {
          "internalType": "uint256",
          "name": "id",
          "type": "uint256"
        }
      ],
      "name": "confirmChange",
      "outputs": [],
      "stateMutability": "nonpayable",
      "type": "function"
    },
    {
      "inputs": [
        {
          "internalType": "string",
          "name": "_name",
          "type": "string"
        },
        {
          "internalType": "string",
          "name": "_dob",
          "type": "string"
        },
        {
          "internalType": "string",
          "name": "_exp_date",
          "type": "string"
        },
        {
          "internalType": "string",
          "name": "_address",
          "type": "string"
        },
        {
          "internalType": "string",
          "name": "_city_state",
          "type": "string"
        },
        {
          "internalType": "string",
          "name": "_gender",
          "type": "string"
        }
      ],
      "name": "createLicense",
      "outputs": [],
      "stateMutability": "nonpayable",
      "type": "function"
    },
    {
      "inputs": [
        {
          "internalType": "uint256",
          "name": "_ID",
          "type": "uint256"
        }
      ],
      "name": "getAddress",
      "outputs": [
        {
          "internalType": "address",
          "name": "",
          "type": "address"
        }
      ],
      "stateMutability": "view",
      "type": "function"
    },
    {
      "inputs": [
        {
          "internalType": "uint256",
          "name": "id",
          "type": "uint256"
        }
      ],
      "name": "getBasicInformation",
      "outputs": [
        {
          "internalType": "string",
          "name": "",
          "type": "string"
        },
        {
          "internalType": "string",
          "name": "",
          "type": "string"
        }
      ],
      "stateMutability": "view",
      "type": "function"
    },
    {
      "inputs": [
        {
          "internalType": "uint256",
          "name": "id",
          "type": "uint256"
        }
      ],
      "name": "getChange",
      "outputs": [
        {
          "internalType": "uint256",
          "name": "",
          "type": "uint256"
        },
        {
          "internalType": "string",
          "name": "",
          "type": "string"
        },
        {
          "internalType": "string",
          "name": "",
          "type": "string"
        },
        {
          "internalType": "string",
          "name": "",
          "type": "string"
        },
        {
          "internalType": "string",
          "name": "",
          "type": "string"
        },
        {
          "internalType": "string",
          "name": "",
          "type": "string"
        },
        {
          "internalType": "string",
          "name": "",
          "type": "string"
        }
      ],
      "stateMutability": "view",
      "type": "function"
    },
    {
      "inputs": [
        {
          "internalType": "uint256",
          "name": "id",
          "type": "uint256"
        }
      ],
      "name": "getFullInformation",
      "outputs": [
        {
          "internalType": "uint256",
          "name": "",
          "type": "uint256"
        },
        {
          "internalType": "string",
          "name": "",
          "type": "string"
        },
        {
          "internalType": "string",
          "name": "",
          "type": "string"
        },
        {
          "internalType": "string",
          "name": "",
          "type": "string"
        },
        {
          "internalType": "string",
          "name": "",
          "type": "string"
        },
        {
          "internalType": "string",
          "name": "",
          "type": "string"
        },
        {
          "internalType": "string",
          "name": "",
          "type": "string"
        }
      ],
      "stateMutability": "view",
      "type": "function"
    },
    {
      "inputs": [
        {
          "internalType": "address",
          "name": "_owner",
          "type": "address"
        }
      ],
      "name": "getID",
      "outputs": [
        {
          "internalType": "uint256",
          "name": "",
          "type": "uint256"
        }
      ],
      "stateMutability": "view",
      "type": "function"
    },
    {
      "inputs": [
        {
          "internalType": "uint256",
          "name": "",
          "type": "uint256"
        }
      ],
      "name": "licenseToOwner",
      "outputs": [
        {
          "internalType": "address",
          "name": "",
          "type": "address"
        }
      ],
      "stateMutability": "view",
      "type": "function"
    },
    {
      "inputs": [
        {
          "internalType": "address",
          "name": "",
          "type": "address"
        }
      ],
      "name": "ownerHasLicense",
      "outputs": [
        {
          "internalType": "bool",
          "name": "",
          "type": "bool"
        }
      ],
      "stateMutability": "view",
      "type": "function"
    },
    {
      "inputs": [
        {
          "internalType": "address",
          "name": "",
          "type": "address"
        }
      ],
      "name": "ownerToLicense",
      "outputs": [
        {
          "internalType": "uint256",
          "name": "",
          "type": "uint256"
        }
      ],
      "stateMutability": "view",
      "type": "function"
    },
    {
      "inputs": [
        {
          "internalType": "uint256",
          "name": "",
          "type": "uint256"
        }
      ],
      "name": "requestingChange",
      "outputs": [
        {
          "internalType": "bool",
          "name": "",
          "type": "bool"
        }
      ],
      "stateMutability": "view",
      "type": "function"
    },
    {
      "inputs": [
        {
          "internalType": "uint256",
          "name": "id",
          "type": "uint256"
        },
        {
          "internalType": "string",
          "name": "_name",
          "type": "string"
        },
        {
          "internalType": "string",
          "name": "_dob",
          "type": "string"
        },
        {
          "internalType": "string",
          "name": "_exp_date",
          "type": "string"
        },
        {
          "internalType": "string",
          "name": "_address",
          "type": "string"
        },
        {
          "internalType": "string",
          "name": "_city_state",
          "type": "string"
        },
        {
          "internalType": "string",
          "name": "_gender",
          "type": "string"
        }
      ],
      "name": "setChange",
      "outputs": [],
      "stateMutability": "nonpayable",
      "type": "function"
    }
  ],
  "bytecode": "0x608060405234801561001057600080fd5b5033600360086101000a81548173ffffffffffffffffffffffffffffffffffffffff021916908373ffffffffffffffffffffffffffffffffffffffff1602179055506000600360006101000a81548167ffffffffffffffff021916908367ffffffffffffffff160217905550612ff58061008b6000396000f3fe608060405234801561001057600080fd5b50600436106100b45760003560e01c806399f826a51161007157806399f826a514610ae5578063a095ecde14610b3d578063b93f9b0a14610eeb578063ca71eb3314610f43578063d0a1712214611056578063df25175e146110ae576100b4565b8063170ef8b5146100b95780631ff26c97146100e757806354a8bd071461014157806370e9a2781461040b5780637ced1102146107c3578063942db7e41461081b575b600080fd5b6100e5600480360360208110156100cf57600080fd5b81019080803590602001909291905050506110f2565b005b610129600480360360208110156100fd57600080fd5b81019080803573ffffffffffffffffffffffffffffffffffffffff169060200190929190505050611695565b60405180821515815260200191505060405180910390f35b61016d6004803603602081101561015757600080fd5b81019080803590602001909291905050506116b5565b6040518088815260200180602001806020018060200180602001806020018060200187810387528d818151815260200191508051906020019080838360005b838110156101c75780820151818401526020810190506101ac565b50505050905090810190601f1680156101f45780820380516001836020036101000a031916815260200191505b5087810386528c818151815260200191508051906020019080838360005b8381101561022d578082015181840152602081019050610212565b50505050905090810190601f16801561025a5780820380516001836020036101000a031916815260200191505b5087810385528b818151815260200191508051906020019080838360005b83811015610293578082015181840152602081019050610278565b50505050905090810190601f1680156102c05780820380516001836020036101000a031916815260200191505b5087810384528a818151815260200191508051906020019080838360005b838110156102f95780820151818401526020810190506102de565b50505050905090810190601f1680156103265780820380516001836020036101000a031916815260200191505b50878103835289818151815260200191508051906020019080838360005b8381101561035f578082015181840152602081019050610344565b50505050905090810190601f16801561038c5780820380516001836020036101000a031916815260200191505b50878103825288818151815260200191508051906020019080838360005b838110156103c55780820151818401526020810190506103aa565b50505050905090810190601f1680156103f25780820380516001836020036101000a031916815260200191505b509d505050505050505050505050505060405180910390f35b6107c1600480360360e081101561042157600080fd5b81019080803590602001909291908035906020019064010000000081111561044857600080fd5b82018360208201111561045a57600080fd5b8035906020019184600183028401116401000000008311171561047c57600080fd5b91908080601f016020809104026020016040519081016040528093929190818152602001838380828437600081840152601f19601f820116905080830192505050505050509192919290803590602001906401000000008111156104df57600080fd5b8201836020820111156104f157600080fd5b8035906020019184600183028401116401000000008311171561051357600080fd5b91908080601f016020809104026020016040519081016040528093929190818152602001838380828437600081840152601f19601f8201169050808301925050505050505091929192908035906020019064010000000081111561057657600080fd5b82018360208201111561058857600080fd5b803590602001918460018302840111640100000000831117156105aa57600080fd5b91908080601f016020809104026020016040519081016040528093929190818152602001838380828437600081840152601f19601f8201169050808301925050505050505091929192908035906020019064010000000081111561060d57600080fd5b82018360208201111561061f57600080fd5b8035906020019184600183028401116401000000008311171561064157600080fd5b91908080601f016020809104026020016040519081016040528093929190818152602001838380828437600081840152601f19601f820116905080830192505050505050509192919290803590602001906401000000008111156106a457600080fd5b8201836020820111156106b657600080fd5b803590602001918460018302840111640100000000831117156106d857600080fd5b91908080601f016020809104026020016040519081016040528093929190818152602001838380828437600081840152601f19601f8201169050808301925050505050505091929192908035906020019064010000000081111561073b57600080fd5b82018360208201111561074d57600080fd5b8035906020019184600183028401116401000000008311171561076f57600080fd5b91908080601f016020809104026020016040519081016040528093929190818152602001838380828437600081840152601f19601f820116905080830192505050505050509192919290505050611c08565b005b6107ef600480360360208110156107d957600080fd5b8101908080359060200190929190505050611ef1565b604051808273ffffffffffffffffffffffffffffffffffffffff16815260200191505060405180910390f35b6108476004803603602081101561083157600080fd5b8101908080359060200190929190505050611f24565b6040518088815260200180602001806020018060200180602001806020018060200187810387528d818151815260200191508051906020019080838360005b838110156108a1578082015181840152602081019050610886565b50505050905090810190601f1680156108ce5780820380516001836020036101000a031916815260200191505b5087810386528c818151815260200191508051906020019080838360005b838110156109075780820151818401526020810190506108ec565b50505050905090810190601f1680156109345780820380516001836020036101000a031916815260200191505b5087810385528b818151815260200191508051906020019080838360005b8381101561096d578082015181840152602081019050610952565b50505050905090810190601f16801561099a5780820380516001836020036101000a031916815260200191505b5087810384528a818151815260200191508051906020019080838360005b838110156109d35780820151818401526020810190506109b8565b50505050905090810190601f168015610a005780820380516001836020036101000a031916815260200191505b50878103835289818151815260200191508051906020019080838360005b83811015610a39578082015181840152602081019050610a1e565b50505050905090810190601f168015610a665780820380516001836020036101000a031916815260200191505b50878103825288818151815260200191508051906020019080838360005b83811015610a9f578082015181840152602081019050610a84565b50505050905090810190601f168015610acc5780820380516001836020036101000a031916815260200191505b509d505050505050505050505050505060405180910390f35b610b2760048036036020811015610afb57600080fd5b81019080803573ffffffffffffffffffffffffffffffffffffffff1690602001909291905050506124d1565b6040518082815260200191505060405180910390f35b610ee9600480360360c0811015610b5357600080fd5b8101908080359060200190640100000000811115610b7057600080fd5b820183602082011115610b8257600080fd5b80359060200191846001830284011164010000000083111715610ba457600080fd5b91908080601f016020809104026020016040519081016040528093929190818152602001838380828437600081840152601f19601f82011690508083019250505050505050919291929080359060200190640100000000811115610c0757600080fd5b820183602082011115610c1957600080fd5b80359060200191846001830284011164010000000083111715610c3b57600080fd5b91908080601f016020809104026020016040519081016040528093929190818152602001838380828437600081840152601f19601f82011690508083019250505050505050919291929080359060200190640100000000811115610c9e57600080fd5b820183602082011115610cb057600080fd5b80359060200191846001830284011164010000000083111715610cd257600080fd5b91908080601f016020809104026020016040519081016040528093929190818152602001838380828437600081840152601f19601f82011690508083019250505050505050919291929080359060200190640100000000811115610d3557600080fd5b820183602082011115610d4757600080fd5b80359060200191846001830284011164010000000083111715610d6957600080fd5b91908080601f016020809104026020016040519081016040528093929190818152602001838380828437600081840152601f19601f82011690508083019250505050505050919291929080359060200190640100000000811115610dcc57600080fd5b820183602082011115610dde57600080fd5b80359060200191846001830284011164010000000083111715610e0057600080fd5b91908080601f016020809104026020016040519081016040528093929190818152602001838380828437600081840152601f19601f82011690508083019250505050505050919291929080359060200190640100000000811115610e6357600080fd5b820183602082011115610e7557600080fd5b80359060200191846001830284011164010000000083111715610e9757600080fd5b91908080601f016020809104026020016040519081016040528093929190818152602001838380828437600081840152601f19601f82011690508083019250505050505050919291929050505061251a565b005b610f1760048036036020811015610f0157600080fd5b81019080803590602001909291905050506128ef565b604051808273ffffffffffffffffffffffffffffffffffffffff16815260200191505060405180910390f35b610f6f60048036036020811015610f5957600080fd5b8101908080359060200190929190505050612a39565b604051808060200180602001838103835285818151815260200191508051906020019080838360005b83811015610fb3578082015181840152602081019050610f98565b50505050905090810190601f168015610fe05780820380516001836020036101000a031916815260200191505b50838103825284818151815260200191508051906020019080838360005b83811015611019578082015181840152602081019050610ffe565b50505050905090810190601f1680156110465780820380516001836020036101000a031916815260200191505b5094505050505060405180910390f35b6110986004803603602081101561106c57600080fd5b81019080803573ffffffffffffffffffffffffffffffffffffffff169060200190929190505050612bb9565b6040518082815260200191505060405180910390f35b6110da600480360360208110156110c457600080fd5b8101908080359060200190929190505050612bd1565b60405180821515815260200191505060405180910390f35b600360089054906101000a900473ffffffffffffffffffffffffffffffffffffffff1673ffffffffffffffffffffffffffffffffffffffff163373ffffffffffffffffffffffffffffffffffffffff16146111b5576040517f08c379a000000000000000000000000000000000000000000000000000000000815260040180806020018281038252601d8152602001807f4f6e6c7920444d562063616e20636f6e6669726d206368616e6765732e00000081525060200191505060405180910390fd5b60006111c082612bf1565b9050600681815481106111cf57fe5b9060005260206000209060070201600101600483815481106111ed57fe5b9060005260206000209060070201600101908054600181600116156101000203166002900461121d929190612ccb565b506006818154811061122b57fe5b90600052602060002090600702016002016004838154811061124957fe5b90600052602060002090600702016002019080546001816001161561010002031660029004611279929190612ccb565b506006818154811061128757fe5b9060005260206000209060070201600301600483815481106112a557fe5b906000526020600020906007020160030190805460018160011615610100020316600290046112d5929190612ccb565b50600681815481106112e357fe5b90600052602060002090600702016004016004838154811061130157fe5b90600052602060002090600702016004019080546001816001161561010002031660029004611331929190612ccb565b506006818154811061133f57fe5b90600052602060002090600702016005016004838154811061135d57fe5b9060005260206000209060070201600501908054600181600116156101000203166002900461138d929190612ccb565b506006818154811061139b57fe5b9060005260206000209060070201600601600483815481106113b957fe5b906000526020600020906007020160060190805460018160011615610100020316600290046113e9929190612ccb565b506006600160068054905003815481106113ff57fe5b90600052602060002090600702016006828154811061141a57fe5b90600052602060002090600702016000820154816000015560018201816001019080546001816001161561010002031660029004611459929190612d52565b5060028201816002019080546001816001161561010002031660029004611481929190612d52565b50600382018160030190805460018160011615610100020316600290046114a9929190612d52565b50600482018160040190805460018160011615610100020316600290046114d1929190612d52565b50600582018160050190805460018160011615610100020316600290046114f9929190612d52565b5060068201816006019080546001816001161561010002031660029004611521929190612d52565b5090505060066001600680549050038154811061153a57fe5b90600052602060002090600702016000808201600090556001820160006115619190612dd9565b6002820160006115719190612dd9565b6003820160006115819190612dd9565b6004820160006115919190612dd9565b6005820160006115a19190612dd9565b6006820160006115b19190612dd9565b50507f6ebd90d1fadc8b874571ceaf89fd7f5d7945729a76349830c5f82b9b70e6bb0d600483815481106115e157fe5b90600052602060002090600702016001018360405180806020018381526020018281038252848181546001816001161561010002031660029004815260200191508054600181600116156101000203166002900480156116825780601f1061165757610100808354040283529160200191611682565b820191906000526020600020905b81548152906001019060200180831161166557829003601f168201915b5050935050505060405180910390a15050565b60026020528060005260406000206000915054906101000a900460ff1681565b6000606080606080606080600360089054906101000a900473ffffffffffffffffffffffffffffffffffffffff1673ffffffffffffffffffffffffffffffffffffffff163373ffffffffffffffffffffffffffffffffffffffff1614611766576040517f08c379a0000000000000000000000000000000000000000000000000000000008152600401808060200182810382526026815260200180612f9a6026913960400191505060405180910390fd5b600061177189612bf1565b90506004818154811061178057fe5b9060005260206000209060070201600001546006828154811061179f57fe5b9060005260206000209060070201600101600683815481106117bd57fe5b9060005260206000209060070201600201600684815481106117db57fe5b9060005260206000209060070201600301600685815481106117f957fe5b90600052602060002090600702016004016006868154811061181757fe5b90600052602060002090600702016005016006878154811061183557fe5b9060005260206000209060070201600601858054600181600116156101000203166002900480601f0160208091040260200160405190810160405280929190818152602001828054600181600116156101000203166002900480156118db5780601f106118b0576101008083540402835291602001916118db565b820191906000526020600020905b8154815290600101906020018083116118be57829003601f168201915b50505050509550848054600181600116156101000203166002900480601f0160208091040260200160405190810160405280929190818152602001828054600181600116156101000203166002900480156119775780601f1061194c57610100808354040283529160200191611977565b820191906000526020600020905b81548152906001019060200180831161195a57829003601f168201915b50505050509450838054600181600116156101000203166002900480601f016020809104026020016040519081016040528092919081815260200182805460018160011615610100020316600290048015611a135780601f106119e857610100808354040283529160200191611a13565b820191906000526020600020905b8154815290600101906020018083116119f657829003601f168201915b50505050509350828054600181600116156101000203166002900480601f016020809104026020016040519081016040528092919081815260200182805460018160011615610100020316600290048015611aaf5780601f10611a8457610100808354040283529160200191611aaf565b820191906000526020600020905b815481529060010190602001808311611a9257829003601f168201915b50505050509250818054600181600116156101000203166002900480601f016020809104026020016040519081016040528092919081815260200182805460018160011615610100020316600290048015611b4b5780601f10611b2057610100808354040283529160200191611b4b565b820191906000526020600020905b815481529060010190602001808311611b2e57829003601f168201915b50505050509150808054600181600116156101000203166002900480601f016020809104026020016040519081016040528092919081815260200182805460018160011615610100020316600290048015611be75780601f10611bbc57610100808354040283529160200191611be7565b820191906000526020600020905b815481529060010190602001808311611bca57829003601f168201915b50505050509050975097509750975097509750975050919395979092949650565b60011515600260003373ffffffffffffffffffffffffffffffffffffffff1673ffffffffffffffffffffffffffffffffffffffff16815260200190815260200160002060009054906101000a900460ff16151514611cb1576040517f08c379a0000000000000000000000000000000000000000000000000000000008152600401808060200182810382526028815260200180612f726028913960400191505060405180910390fd5b3373ffffffffffffffffffffffffffffffffffffffff1660008089815260200190815260200160002060009054906101000a900473ffffffffffffffffffffffffffffffffffffffff1673ffffffffffffffffffffffffffffffffffffffff1614611d84576040517f08c379a000000000000000000000000000000000000000000000000000000000815260040180806020018281038252601f8152602001807f4f6e6c7920757365722063616e20726571756573742061206368616e67652e0081525060200191505060405180910390fd5b60066040518060e00160405280600360009054906101000a900467ffffffffffffffff1667ffffffffffffffff168152602001888152602001878152602001868152602001858152602001848152602001838152509080600181540180825580915050600190039060005260206000209060070201600090919091909150600082015181600001556020820151816001019080519060200190611e28929190612e21565b506040820151816002019080519060200190611e45929190612e21565b506060820151816003019080519060200190611e62929190612e21565b506080820151816004019080519060200190611e7f929190612e21565b5060a0820151816005019080519060200190611e9c929190612e21565b5060c0820151816006019080519060200190611eb9929190612e21565b50505060016005600089815260200190815260200160002060006101000a81548160ff02191690831515021790555050505050505050565b60006020528060005260406000206000915054906101000a900473ffffffffffffffffffffffffffffffffffffffff1681565b60006060806060806060803373ffffffffffffffffffffffffffffffffffffffff166000808a815260200190815260200160002060009054906101000a900473ffffffffffffffffffffffffffffffffffffffff1673ffffffffffffffffffffffffffffffffffffffff161480611fe857503373ffffffffffffffffffffffffffffffffffffffff16600360089054906101000a900473ffffffffffffffffffffffffffffffffffffffff1673ffffffffffffffffffffffffffffffffffffffff16145b61203d576040517f08c379a0000000000000000000000000000000000000000000000000000000008152600401808060200182810382526049815260200180612efd6049913960600191505060405180910390fd5b6004888154811061204a57fe5b9060005260206000209060070201600001546004898154811061206957fe5b906000526020600020906007020160010160048a8154811061208757fe5b906000526020600020906007020160020160048b815481106120a557fe5b906000526020600020906007020160030160048c815481106120c357fe5b906000526020600020906007020160040160048d815481106120e157fe5b906000526020600020906007020160050160048e815481106120ff57fe5b9060005260206000209060070201600601858054600181600116156101000203166002900480601f0160208091040260200160405190810160405280929190818152602001828054600181600116156101000203166002900480156121a55780601f1061217a576101008083540402835291602001916121a5565b820191906000526020600020905b81548152906001019060200180831161218857829003601f168201915b50505050509550848054600181600116156101000203166002900480601f0160208091040260200160405190810160405280929190818152602001828054600181600116156101000203166002900480156122415780601f1061221657610100808354040283529160200191612241565b820191906000526020600020905b81548152906001019060200180831161222457829003601f168201915b50505050509450838054600181600116156101000203166002900480601f0160208091040260200160405190810160405280929190818152602001828054600181600116156101000203166002900480156122dd5780601f106122b2576101008083540402835291602001916122dd565b820191906000526020600020905b8154815290600101906020018083116122c057829003601f168201915b50505050509350828054600181600116156101000203166002900480601f0160208091040260200160405190810160405280929190818152602001828054600181600116156101000203166002900480156123795780601f1061234e57610100808354040283529160200191612379565b820191906000526020600020905b81548152906001019060200180831161235c57829003601f168201915b50505050509250818054600181600116156101000203166002900480601f0160208091040260200160405190810160405280929190818152602001828054600181600116156101000203166002900480156124155780601f106123ea57610100808354040283529160200191612415565b820191906000526020600020905b8154815290600101906020018083116123f857829003601f168201915b50505050509150808054600181600116156101000203166002900480601f0160208091040260200160405190810160405280929190818152602001828054600181600116156101000203166002900480156124b15780601f10612486576101008083540402835291602001916124b1565b820191906000526020600020905b81548152906001019060200180831161249457829003601f168201915b505050505090509650965096509650965096509650919395979092949650565b6000600160008373ffffffffffffffffffffffffffffffffffffffff1673ffffffffffffffffffffffffffffffffffffffff168152602001908152602001600020549050919050565b60001515600260003373ffffffffffffffffffffffffffffffffffffffff1673ffffffffffffffffffffffffffffffffffffffff16815260200190815260200160002060009054906101000a900460ff1615151461257757600080fd5b60046040518060e00160405280600360009054906101000a900467ffffffffffffffff1667ffffffffffffffff16815260200188815260200187815260200186815260200185815260200184815260200183815250908060018154018082558091505060019003906000526020600020906007020160009091909190915060008201518160000155602082015181600101908051906020019061261b929190612e21565b506040820151816002019080519060200190612638929190612e21565b506060820151816003019080519060200190612655929190612e21565b506080820151816004019080519060200190612672929190612e21565b5060a082015181600501908051906020019061268f929190612e21565b5060c08201518160060190805190602001906126ac929190612e21565b50505033600080600360009054906101000a900467ffffffffffffffff1667ffffffffffffffff16815260200190815260200160002060006101000a81548173ffffffffffffffffffffffffffffffffffffffff021916908373ffffffffffffffffffffffffffffffffffffffff160217905550600360009054906101000a900467ffffffffffffffff1667ffffffffffffffff16600160003373ffffffffffffffffffffffffffffffffffffffff1673ffffffffffffffffffffffffffffffffffffffff168152602001908152602001600020819055506001600260003373ffffffffffffffffffffffffffffffffffffffff1673ffffffffffffffffffffffffffffffffffffffff16815260200190815260200160002060006101000a81548160ff0219169083151502179055507f47e8e081cf7306d199eb832eebc661b9a5ae825d2c0c56359ac878093da0522686600360009054906101000a900467ffffffffffffffff1660405180806020018367ffffffffffffffff168152602001828103825284818151815260200191508051906020019080838360005b8381101561286557808201518184015260208101905061284a565b50505050905090810190601f1680156128925780820380516001836020036101000a031916815260200191505b50935050505060405180910390a16003600081819054906101000a900467ffffffffffffffff168092919060010191906101000a81548167ffffffffffffffff021916908367ffffffffffffffff16021790555050505050505050565b60003373ffffffffffffffffffffffffffffffffffffffff1660008084815260200190815260200160002060009054906101000a900473ffffffffffffffffffffffffffffffffffffffff1673ffffffffffffffffffffffffffffffffffffffff1614806129aa57503373ffffffffffffffffffffffffffffffffffffffff16600360089054906101000a900473ffffffffffffffffffffffffffffffffffffffff1673ffffffffffffffffffffffffffffffffffffffff16145b6129ff576040517f08c379a000000000000000000000000000000000000000000000000000000000815260040180806020018281038252603e815260200180612ebf603e913960400191505060405180910390fd5b60008083815260200190815260200160002060009054906101000a900473ffffffffffffffffffffffffffffffffffffffff169050919050565b60608060048381548110612a4957fe5b906000526020600020906007020160010160048481548110612a6757fe5b9060005260206000209060070201600201818054600181600116156101000203166002900480601f016020809104026020016040519081016040528092919081815260200182805460018160011615610100020316600290048015612b0d5780601f10612ae257610100808354040283529160200191612b0d565b820191906000526020600020905b815481529060010190602001808311612af057829003601f168201915b50505050509150808054600181600116156101000203166002900480601f016020809104026020016040519081016040528092919081815260200182805460018160011615610100020316600290048015612ba95780601f10612b7e57610100808354040283529160200191612ba9565b820191906000526020600020905b815481529060010190602001808311612b8c57829003601f168201915b5050505050905091509150915091565b60016020528060005260406000206000915090505481565b60056020528060005260406000206000915054906101000a900460ff1681565b6000600115156005600084815260200190815260200160002060009054906101000a900460ff16151514612c70576040517f08c379a000000000000000000000000000000000000000000000000000000000815260040180806020018281038252602c815260200180612f46602c913960400191505060405180910390fd5b6000805b600680549050811015612cc1578360068281548110612c8f57fe5b9060005260206000209060070201600001541415612cac57612cc1565b81806001019250508080600101915050612c74565b5080915050919050565b828054600181600116156101000203166002900490600052602060002090601f016020900481019282601f10612d045780548555612d41565b82800160010185558215612d4157600052602060002091601f016020900482015b82811115612d40578254825591600101919060010190612d25565b5b509050612d4e9190612ea1565b5090565b828054600181600116156101000203166002900490600052602060002090601f016020900481019282601f10612d8b5780548555612dc8565b82800160010185558215612dc857600052602060002091601f016020900482015b82811115612dc7578254825591600101919060010190612dac565b5b509050612dd59190612ea1565b5090565b50805460018160011615610100020316600290046000825580601f10612dff5750612e1e565b601f016020900490600052602060002090810190612e1d9190612ea1565b5b50565b828054600181600116156101000203166002900490600052602060002090601f016020900481019282601f10612e6257805160ff1916838001178555612e90565b82800160010185558215612e90579182015b82811115612e8f578251825591602001919060010190612e74565b5b509050612e9d9190612ea1565b5090565b5b80821115612eba576000816000905550600101612ea2565b509056fe4f6e6c7920746865204f776e6572206f6620746865206c6963656e7365206f722074686520444d562063616e20676574207573657220616464726573732e4f6e6c7920746865204f776e6572206f6620746865206c6963656e7365206f722074686520444d562063616e20616363657373207468652066756c6c20696e666f726d6174696f6e2e4368616e676520776173206e6f74206265656e2072657175657374656420666f72207468697320757365722e596f75206861766520746f20686176652061206c6963656e736520746f206368616e67652069742e4f6e6c7920444d562063616e20616363657373207363686564756c6564206368616e6765732ea264697066735822122021a1ad80dbd567590247dffbdb2d80615ab746ca90f67f58b8613ac4f9daab0a64736f6c63430007030033",
  "linkReferences": {},
  "deployedLinkReferences": {}
}