{
  "_format": "hh-sol-artifact-1",
  "contractName": "dmvController",
  "sourceName": "contracts/dmvController.sol",
  "abi": [
    {
      "inputs": [],
      "stateMutability": "nonpayable",
      "type": "constructor"
    },
    {
      "inputs": [],
      "name": "getUserLicenseAddress",
      "outputs": [
        {
          "internalType": "address",
          "name": "",
          "type": "address"
        }
      ],
      "stateMutability": "view",
      "type": "function"
    }
  ],
  "bytecode": "0x608060405234801561001057600080fd5b5060405161001d906100bf565b604051809103906000f080158015610039573d6000803e3d6000fd5b506000806101000a81548173ffffffffffffffffffffffffffffffffffffffff021916908373ffffffffffffffffffffffffffffffffffffffff16021790555033600160006101000a81548173ffffffffffffffffffffffffffffffffffffffff021916908373ffffffffffffffffffffffffffffffffffffffff1602179055506100cc565b6130bc806101ae83390190565b60d4806100da6000396000f3fe6080604052348015600f57600080fd5b506004361060285760003560e01c8063e2ffa17814602d575b600080fd5b60336075565b604051808273ffffffffffffffffffffffffffffffffffffffff1673ffffffffffffffffffffffffffffffffffffffff16815260200191505060405180910390f35b60008060009054906101000a900473ffffffffffffffffffffffffffffffffffffffff1690509056fea264697066735822122011bbd4056e7af2c60e5e85ae71bf085ece6c13f19ebfceb1d5a9a6a5c3bc355864736f6c63430006040033608060405234801561001057600080fd5b5033600360086101000a81548173ffffffffffffffffffffffffffffffffffffffff021916908373ffffffffffffffffffffffffffffffffffffffff1602179055506000600360006101000a81548167ffffffffffffffff021916908367ffffffffffffffff1602179055506130318061008b6000396000f3fe608060405234801561001057600080fd5b50600436106100b45760003560e01c806399f826a51161007157806399f826a514610afd578063a095ecde14610b55578063b93f9b0a14610f03578063ca71eb3314610f71578063d0a1712214611084578063df25175e146110dc576100b4565b8063170ef8b5146100b95780631ff26c97146100e757806354a8bd071461014357806370e9a2781461040d5780637ced1102146107c5578063942db7e414610833575b600080fd5b6100e5600480360360208110156100cf57600080fd5b8101908080359060200190929190505050611122565b005b610129600480360360208110156100fd57600080fd5b81019080803573ffffffffffffffffffffffffffffffffffffffff1690602001909291905050506116c5565b604051808215151515815260200191505060405180910390f35b61016f6004803603602081101561015957600080fd5b81019080803590602001909291905050506116e5565b6040518088815260200180602001806020018060200180602001806020018060200187810387528d818151815260200191508051906020019080838360005b838110156101c95780820151818401526020810190506101ae565b50505050905090810190601f1680156101f65780820380516001836020036101000a031916815260200191505b5087810386528c818151815260200191508051906020019080838360005b8381101561022f578082015181840152602081019050610214565b50505050905090810190601f16801561025c5780820380516001836020036101000a031916815260200191505b5087810385528b818151815260200191508051906020019080838360005b8381101561029557808201518184015260208101905061027a565b50505050905090810190601f1680156102c25780820380516001836020036101000a031916815260200191505b5087810384528a818151815260200191508051906020019080838360005b838110156102fb5780820151818401526020810190506102e0565b50505050905090810190601f1680156103285780820380516001836020036101000a031916815260200191505b50878103835289818151815260200191508051906020019080838360005b83811015610361578082015181840152602081019050610346565b50505050905090810190601f16801561038e5780820380516001836020036101000a031916815260200191505b50878103825288818151815260200191508051906020019080838360005b838110156103c75780820151818401526020810190506103ac565b50505050905090810190601f1680156103f45780820380516001836020036101000a031916815260200191505b509d505050505050505050505050505060405180910390f35b6107c3600480360360e081101561042357600080fd5b81019080803590602001909291908035906020019064010000000081111561044a57600080fd5b82018360208201111561045c57600080fd5b8035906020019184600183028401116401000000008311171561047e57600080fd5b91908080601f016020809104026020016040519081016040528093929190818152602001838380828437600081840152601f19601f820116905080830192505050505050509192919290803590602001906401000000008111156104e157600080fd5b8201836020820111156104f357600080fd5b8035906020019184600183028401116401000000008311171561051557600080fd5b91908080601f016020809104026020016040519081016040528093929190818152602001838380828437600081840152601f19601f8201169050808301925050505050505091929192908035906020019064010000000081111561057857600080fd5b82018360208201111561058a57600080fd5b803590602001918460018302840111640100000000831117156105ac57600080fd5b91908080601f016020809104026020016040519081016040528093929190818152602001838380828437600081840152601f19601f8201169050808301925050505050505091929192908035906020019064010000000081111561060f57600080fd5b82018360208201111561062157600080fd5b8035906020019184600183028401116401000000008311171561064357600080fd5b91908080601f016020809104026020016040519081016040528093929190818152602001838380828437600081840152601f19601f820116905080830192505050505050509192919290803590602001906401000000008111156106a657600080fd5b8201836020820111156106b857600080fd5b803590602001918460018302840111640100000000831117156106da57600080fd5b91908080601f016020809104026020016040519081016040528093929190818152602001838380828437600081840152601f19601f8201169050808301925050505050505091929192908035906020019064010000000081111561073d57600080fd5b82018360208201111561074f57600080fd5b8035906020019184600183028401116401000000008311171561077157600080fd5b91908080601f016020809104026020016040519081016040528093929190818152602001838380828437600081840152601f19601f820116905080830192505050505050509192919290505050611c38565b005b6107f1600480360360208110156107db57600080fd5b8101908080359060200190929190505050611f21565b604051808273ffffffffffffffffffffffffffffffffffffffff1673ffffffffffffffffffffffffffffffffffffffff16815260200191505060405180910390f35b61085f6004803603602081101561084957600080fd5b8101908080359060200190929190505050611f54565b6040518088815260200180602001806020018060200180602001806020018060200187810387528d818151815260200191508051906020019080838360005b838110156108b957808201518184015260208101905061089e565b50505050905090810190601f1680156108e65780820380516001836020036101000a031916815260200191505b5087810386528c818151815260200191508051906020019080838360005b8381101561091f578082015181840152602081019050610904565b50505050905090810190601f16801561094c5780820380516001836020036101000a031916815260200191505b5087810385528b818151815260200191508051906020019080838360005b8381101561098557808201518184015260208101905061096a565b50505050905090810190601f1680156109b25780820380516001836020036101000a031916815260200191505b5087810384528a818151815260200191508051906020019080838360005b838110156109eb5780820151818401526020810190506109d0565b50505050905090810190601f168015610a185780820380516001836020036101000a031916815260200191505b50878103835289818151815260200191508051906020019080838360005b83811015610a51578082015181840152602081019050610a36565b50505050905090810190601f168015610a7e5780820380516001836020036101000a031916815260200191505b50878103825288818151815260200191508051906020019080838360005b83811015610ab7578082015181840152602081019050610a9c565b50505050905090810190601f168015610ae45780820380516001836020036101000a031916815260200191505b509d505050505050505050505050505060405180910390f35b610b3f60048036036020811015610b1357600080fd5b81019080803573ffffffffffffffffffffffffffffffffffffffff169060200190929190505050612501565b6040518082815260200191505060405180910390f35b610f01600480360360c0811015610b6b57600080fd5b8101908080359060200190640100000000811115610b8857600080fd5b820183602082011115610b9a57600080fd5b80359060200191846001830284011164010000000083111715610bbc57600080fd5b91908080601f016020809104026020016040519081016040528093929190818152602001838380828437600081840152601f19601f82011690508083019250505050505050919291929080359060200190640100000000811115610c1f57600080fd5b820183602082011115610c3157600080fd5b80359060200191846001830284011164010000000083111715610c5357600080fd5b91908080601f016020809104026020016040519081016040528093929190818152602001838380828437600081840152601f19601f82011690508083019250505050505050919291929080359060200190640100000000811115610cb657600080fd5b820183602082011115610cc857600080fd5b80359060200191846001830284011164010000000083111715610cea57600080fd5b91908080601f016020809104026020016040519081016040528093929190818152602001838380828437600081840152601f19601f82011690508083019250505050505050919291929080359060200190640100000000811115610d4d57600080fd5b820183602082011115610d5f57600080fd5b80359060200191846001830284011164010000000083111715610d8157600080fd5b91908080601f016020809104026020016040519081016040528093929190818152602001838380828437600081840152601f19601f82011690508083019250505050505050919291929080359060200190640100000000811115610de457600080fd5b820183602082011115610df657600080fd5b80359060200191846001830284011164010000000083111715610e1857600080fd5b91908080601f016020809104026020016040519081016040528093929190818152602001838380828437600081840152601f19601f82011690508083019250505050505050919291929080359060200190640100000000811115610e7b57600080fd5b820183602082011115610e8d57600080fd5b80359060200191846001830284011164010000000083111715610eaf57600080fd5b91908080601f016020809104026020016040519081016040528093929190818152602001838380828437600081840152601f19601f82011690508083019250505050505050919291929050505061254a565b005b610f2f60048036036020811015610f1957600080fd5b810190808035906020019092919050505061291f565b604051808273ffffffffffffffffffffffffffffffffffffffff1673ffffffffffffffffffffffffffffffffffffffff16815260200191505060405180910390f35b610f9d60048036036020811015610f8757600080fd5b8101908080359060200190929190505050612a69565b604051808060200180602001838103835285818151815260200191508051906020019080838360005b83811015610fe1578082015181840152602081019050610fc6565b50505050905090810190601f16801561100e5780820380516001836020036101000a031916815260200191505b50838103825284818151815260200191508051906020019080838360005b8381101561104757808201518184015260208101905061102c565b50505050905090810190601f1680156110745780820380516001836020036101000a031916815260200191505b5094505050505060405180910390f35b6110c66004803603602081101561109a57600080fd5b81019080803573ffffffffffffffffffffffffffffffffffffffff169060200190929190505050612be9565b6040518082815260200191505060405180910390f35b611108600480360360208110156110f257600080fd5b8101908080359060200190929190505050612c01565b604051808215151515815260200191505060405180910390f35b600360089054906101000a900473ffffffffffffffffffffffffffffffffffffffff1673ffffffffffffffffffffffffffffffffffffffff163373ffffffffffffffffffffffffffffffffffffffff16146111e5576040517f08c379a000000000000000000000000000000000000000000000000000000000815260040180806020018281038252601d8152602001807f4f6e6c7920444d562063616e20636f6e6669726d206368616e6765732e00000081525060200191505060405180910390fd5b60006111f082612c21565b9050600681815481106111ff57fe5b90600052602060002090600702016001016004838154811061121d57fe5b9060005260206000209060070201600101908054600181600116156101000203166002900461124d929190612cff565b506006818154811061125b57fe5b90600052602060002090600702016002016004838154811061127957fe5b906000526020600020906007020160020190805460018160011615610100020316600290046112a9929190612cff565b50600681815481106112b757fe5b9060005260206000209060070201600301600483815481106112d557fe5b90600052602060002090600702016003019080546001816001161561010002031660029004611305929190612cff565b506006818154811061131357fe5b90600052602060002090600702016004016004838154811061133157fe5b90600052602060002090600702016004019080546001816001161561010002031660029004611361929190612cff565b506006818154811061136f57fe5b90600052602060002090600702016005016004838154811061138d57fe5b906000526020600020906007020160050190805460018160011615610100020316600290046113bd929190612cff565b50600681815481106113cb57fe5b9060005260206000209060070201600601600483815481106113e957fe5b90600052602060002090600702016006019080546001816001161561010002031660029004611419929190612cff565b5060066001600680549050038154811061142f57fe5b90600052602060002090600702016006828154811061144a57fe5b90600052602060002090600702016000820154816000015560018201816001019080546001816001161561010002031660029004611489929190612d86565b50600282018160020190805460018160011615610100020316600290046114b1929190612d86565b50600382018160030190805460018160011615610100020316600290046114d9929190612d86565b5060048201816004019080546001816001161561010002031660029004611501929190612d86565b5060058201816005019080546001816001161561010002031660029004611529929190612d86565b5060068201816006019080546001816001161561010002031660029004611551929190612d86565b5090505060066001600680549050038154811061156a57fe5b90600052602060002090600702016000808201600090556001820160006115919190612e0d565b6002820160006115a19190612e0d565b6003820160006115b19190612e0d565b6004820160006115c19190612e0d565b6005820160006115d19190612e0d565b6006820160006115e19190612e0d565b50507f6ebd90d1fadc8b874571ceaf89fd7f5d7945729a76349830c5f82b9b70e6bb0d6004838154811061161157fe5b90600052602060002090600702016001018360405180806020018381526020018281038252848181546001816001161561010002031660029004815260200191508054600181600116156101000203166002900480156116b25780601f10611687576101008083540402835291602001916116b2565b820191906000526020600020905b81548152906001019060200180831161169557829003601f168201915b5050935050505060405180910390a15050565b60026020528060005260406000206000915054906101000a900460ff1681565b6000606080606080606080600360089054906101000a900473ffffffffffffffffffffffffffffffffffffffff1673ffffffffffffffffffffffffffffffffffffffff163373ffffffffffffffffffffffffffffffffffffffff1614611796576040517f08c379a0000000000000000000000000000000000000000000000000000000008152600401808060200182810382526026815260200180612fd66026913960400191505060405180910390fd5b60006117a189612c21565b9050600481815481106117b057fe5b906000526020600020906007020160000154600682815481106117cf57fe5b9060005260206000209060070201600101600683815481106117ed57fe5b90600052602060002090600702016002016006848154811061180b57fe5b90600052602060002090600702016003016006858154811061182957fe5b90600052602060002090600702016004016006868154811061184757fe5b90600052602060002090600702016005016006878154811061186557fe5b9060005260206000209060070201600601858054600181600116156101000203166002900480601f01602080910402602001604051908101604052809291908181526020018280546001816001161561010002031660029004801561190b5780601f106118e05761010080835404028352916020019161190b565b820191906000526020600020905b8154815290600101906020018083116118ee57829003601f168201915b50505050509550848054600181600116156101000203166002900480601f0160208091040260200160405190810160405280929190818152602001828054600181600116156101000203166002900480156119a75780601f1061197c576101008083540402835291602001916119a7565b820191906000526020600020905b81548152906001019060200180831161198a57829003601f168201915b50505050509450838054600181600116156101000203166002900480601f016020809104026020016040519081016040528092919081815260200182805460018160011615610100020316600290048015611a435780601f10611a1857610100808354040283529160200191611a43565b820191906000526020600020905b815481529060010190602001808311611a2657829003601f168201915b50505050509350828054600181600116156101000203166002900480601f016020809104026020016040519081016040528092919081815260200182805460018160011615610100020316600290048015611adf5780601f10611ab457610100808354040283529160200191611adf565b820191906000526020600020905b815481529060010190602001808311611ac257829003601f168201915b50505050509250818054600181600116156101000203166002900480601f016020809104026020016040519081016040528092919081815260200182805460018160011615610100020316600290048015611b7b5780601f10611b5057610100808354040283529160200191611b7b565b820191906000526020600020905b815481529060010190602001808311611b5e57829003601f168201915b50505050509150808054600181600116156101000203166002900480601f016020809104026020016040519081016040528092919081815260200182805460018160011615610100020316600290048015611c175780601f10611bec57610100808354040283529160200191611c17565b820191906000526020600020905b815481529060010190602001808311611bfa57829003601f168201915b50505050509050975097509750975097509750975050919395979092949650565b60011515600260003373ffffffffffffffffffffffffffffffffffffffff1673ffffffffffffffffffffffffffffffffffffffff16815260200190815260200160002060009054906101000a900460ff16151514611ce1576040517f08c379a0000000000000000000000000000000000000000000000000000000008152600401808060200182810382526028815260200180612fae6028913960400191505060405180910390fd5b3373ffffffffffffffffffffffffffffffffffffffff1660008089815260200190815260200160002060009054906101000a900473ffffffffffffffffffffffffffffffffffffffff1673ffffffffffffffffffffffffffffffffffffffff1614611db4576040517f08c379a000000000000000000000000000000000000000000000000000000000815260040180806020018281038252601f8152602001807f4f6e6c7920757365722063616e20726571756573742061206368616e67652e0081525060200191505060405180910390fd5b60066040518060e00160405280600360009054906101000a900467ffffffffffffffff1667ffffffffffffffff168152602001888152602001878152602001868152602001858152602001848152602001838152509080600181540180825580915050600190039060005260206000209060070201600090919091909150600082015181600001556020820151816001019080519060200190611e58929190612e55565b506040820151816002019080519060200190611e75929190612e55565b506060820151816003019080519060200190611e92929190612e55565b506080820151816004019080519060200190611eaf929190612e55565b5060a0820151816005019080519060200190611ecc929190612e55565b5060c0820151816006019080519060200190611ee9929190612e55565b50505060016005600089815260200190815260200160002060006101000a81548160ff02191690831515021790555050505050505050565b60006020528060005260406000206000915054906101000a900473ffffffffffffffffffffffffffffffffffffffff1681565b60006060806060806060803373ffffffffffffffffffffffffffffffffffffffff166000808a815260200190815260200160002060009054906101000a900473ffffffffffffffffffffffffffffffffffffffff1673ffffffffffffffffffffffffffffffffffffffff16148061201857503373ffffffffffffffffffffffffffffffffffffffff16600360089054906101000a900473ffffffffffffffffffffffffffffffffffffffff1673ffffffffffffffffffffffffffffffffffffffff16145b61206d576040517f08c379a0000000000000000000000000000000000000000000000000000000008152600401808060200182810382526049815260200180612f396049913960600191505060405180910390fd5b6004888154811061207a57fe5b9060005260206000209060070201600001546004898154811061209957fe5b906000526020600020906007020160010160048a815481106120b757fe5b906000526020600020906007020160020160048b815481106120d557fe5b906000526020600020906007020160030160048c815481106120f357fe5b906000526020600020906007020160040160048d8154811061211157fe5b906000526020600020906007020160050160048e8154811061212f57fe5b9060005260206000209060070201600601858054600181600116156101000203166002900480601f0160208091040260200160405190810160405280929190818152602001828054600181600116156101000203166002900480156121d55780601f106121aa576101008083540402835291602001916121d5565b820191906000526020600020905b8154815290600101906020018083116121b857829003601f168201915b50505050509550848054600181600116156101000203166002900480601f0160208091040260200160405190810160405280929190818152602001828054600181600116156101000203166002900480156122715780601f1061224657610100808354040283529160200191612271565b820191906000526020600020905b81548152906001019060200180831161225457829003601f168201915b50505050509450838054600181600116156101000203166002900480601f01602080910402602001604051908101604052809291908181526020018280546001816001161561010002031660029004801561230d5780601f106122e25761010080835404028352916020019161230d565b820191906000526020600020905b8154815290600101906020018083116122f057829003601f168201915b50505050509350828054600181600116156101000203166002900480601f0160208091040260200160405190810160405280929190818152602001828054600181600116156101000203166002900480156123a95780601f1061237e576101008083540402835291602001916123a9565b820191906000526020600020905b81548152906001019060200180831161238c57829003601f168201915b50505050509250818054600181600116156101000203166002900480601f0160208091040260200160405190810160405280929190818152602001828054600181600116156101000203166002900480156124455780601f1061241a57610100808354040283529160200191612445565b820191906000526020600020905b81548152906001019060200180831161242857829003601f168201915b50505050509150808054600181600116156101000203166002900480601f0160208091040260200160405190810160405280929190818152602001828054600181600116156101000203166002900480156124e15780601f106124b6576101008083540402835291602001916124e1565b820191906000526020600020905b8154815290600101906020018083116124c457829003601f168201915b505050505090509650965096509650965096509650919395979092949650565b6000600160008373ffffffffffffffffffffffffffffffffffffffff1673ffffffffffffffffffffffffffffffffffffffff168152602001908152602001600020549050919050565b60001515600260003373ffffffffffffffffffffffffffffffffffffffff1673ffffffffffffffffffffffffffffffffffffffff16815260200190815260200160002060009054906101000a900460ff161515146125a757600080fd5b60046040518060e00160405280600360009054906101000a900467ffffffffffffffff1667ffffffffffffffff16815260200188815260200187815260200186815260200185815260200184815260200183815250908060018154018082558091505060019003906000526020600020906007020160009091909190915060008201518160000155602082015181600101908051906020019061264b929190612e55565b506040820151816002019080519060200190612668929190612e55565b506060820151816003019080519060200190612685929190612e55565b5060808201518160040190805190602001906126a2929190612e55565b5060a08201518160050190805190602001906126bf929190612e55565b5060c08201518160060190805190602001906126dc929190612e55565b50505033600080600360009054906101000a900467ffffffffffffffff1667ffffffffffffffff16815260200190815260200160002060006101000a81548173ffffffffffffffffffffffffffffffffffffffff021916908373ffffffffffffffffffffffffffffffffffffffff160217905550600360009054906101000a900467ffffffffffffffff1667ffffffffffffffff16600160003373ffffffffffffffffffffffffffffffffffffffff1673ffffffffffffffffffffffffffffffffffffffff168152602001908152602001600020819055506001600260003373ffffffffffffffffffffffffffffffffffffffff1673ffffffffffffffffffffffffffffffffffffffff16815260200190815260200160002060006101000a81548160ff0219169083151502179055507f47e8e081cf7306d199eb832eebc661b9a5ae825d2c0c56359ac878093da0522686600360009054906101000a900467ffffffffffffffff1660405180806020018367ffffffffffffffff168152602001828103825284818151815260200191508051906020019080838360005b8381101561289557808201518184015260208101905061287a565b50505050905090810190601f1680156128c25780820380516001836020036101000a031916815260200191505b50935050505060405180910390a16003600081819054906101000a900467ffffffffffffffff168092919060010191906101000a81548167ffffffffffffffff021916908367ffffffffffffffff16021790555050505050505050565b60003373ffffffffffffffffffffffffffffffffffffffff1660008084815260200190815260200160002060009054906101000a900473ffffffffffffffffffffffffffffffffffffffff1673ffffffffffffffffffffffffffffffffffffffff1614806129da57503373ffffffffffffffffffffffffffffffffffffffff16600360089054906101000a900473ffffffffffffffffffffffffffffffffffffffff1673ffffffffffffffffffffffffffffffffffffffff16145b612a2f576040517f08c379a000000000000000000000000000000000000000000000000000000000815260040180806020018281038252603e815260200180612efb603e913960400191505060405180910390fd5b60008083815260200190815260200160002060009054906101000a900473ffffffffffffffffffffffffffffffffffffffff169050919050565b60608060048381548110612a7957fe5b906000526020600020906007020160010160048481548110612a9757fe5b9060005260206000209060070201600201818054600181600116156101000203166002900480601f016020809104026020016040519081016040528092919081815260200182805460018160011615610100020316600290048015612b3d5780601f10612b1257610100808354040283529160200191612b3d565b820191906000526020600020905b815481529060010190602001808311612b2057829003601f168201915b50505050509150808054600181600116156101000203166002900480601f016020809104026020016040519081016040528092919081815260200182805460018160011615610100020316600290048015612bd95780601f10612bae57610100808354040283529160200191612bd9565b820191906000526020600020905b815481529060010190602001808311612bbc57829003601f168201915b5050505050905091509150915091565b60016020528060005260406000206000915090505481565b60056020528060005260406000206000915054906101000a900460ff1681565b6000600115156005600084815260200190815260200160002060009054906101000a900460ff16151514612ca0576040517f08c379a000000000000000000000000000000000000000000000000000000000815260040180806020018281038252602c815260200180612f82602c913960400191505060405180910390fd5b600080905060005b600680549050811015612cf5578360068281548110612cc357fe5b9060005260206000209060070201600001541415612ce057612cf5565b81806001019250508080600101915050612ca8565b5080915050919050565b828054600181600116156101000203166002900490600052602060002090601f016020900481019282601f10612d385780548555612d75565b82800160010185558215612d7557600052602060002091601f016020900482015b82811115612d74578254825591600101919060010190612d59565b5b509050612d829190612ed5565b5090565b828054600181600116156101000203166002900490600052602060002090601f016020900481019282601f10612dbf5780548555612dfc565b82800160010185558215612dfc57600052602060002091601f016020900482015b82811115612dfb578254825591600101919060010190612de0565b5b509050612e099190612ed5565b5090565b50805460018160011615610100020316600290046000825580601f10612e335750612e52565b601f016020900490600052602060002090810190612e519190612ed5565b5b50565b828054600181600116156101000203166002900490600052602060002090601f016020900481019282601f10612e9657805160ff1916838001178555612ec4565b82800160010185558215612ec4579182015b82811115612ec3578251825591602001919060010190612ea8565b5b509050612ed19190612ed5565b5090565b612ef791905b80821115612ef3576000816000905550600101612edb565b5090565b9056fe4f6e6c7920746865204f776e6572206f6620746865206c6963656e7365206f722074686520444d562063616e20676574207573657220616464726573732e4f6e6c7920746865204f776e6572206f6620746865206c6963656e7365206f722074686520444d562063616e20616363657373207468652066756c6c20696e666f726d6174696f6e2e4368616e676520776173206e6f74206265656e2072657175657374656420666f72207468697320757365722e596f75206861766520746f20686176652061206c6963656e736520746f206368616e67652069742e4f6e6c7920444d562063616e20616363657373207363686564756c6564206368616e6765732ea2646970667358221220582f12bc86bb6871482c4d016d4dd31c45fa9662d6c06cec33b18454fab58c2a64736f6c63430006040033",
  "linkReferences": {},
  "deployedLinkReferences": {}
}